:020000040000FA
:06000000FAEF09F0120006
:06100000FAEF09F01200F6
:061008008EEF08F012005B
:06101800F1EF08F01200E8
:02102A000000C4
:04102C0027D88B94A2
:101030008B92F28EF28C0001250E6C6F6A6B9EAA69
:1010400004D098EC09F000016C6F250E00016C5D76
:101050000BE06C51310A04E0010A03E14FD801D0E2
:1010600048D80001250E6C6F6B05E9E18150010B3A
:1010700003E18150020BE3E017D8E1D70F0EC11056
:10108000C16E946A94949492938893809382938887
:101090003AD8020EE66EE66A2C0EE66E53EC09F0C4
:1010A000E552E552E55212008B82100EE66ED3EC4B
:1010B00009F0E5528B92100EE66ED3EC09F0E55282
:1010C0008B82100EE66ED3EC09F0E5528B92100E77
:1010D000E66ED3EC09F0E5528B8212008B9212007F
:1010E0008B840001010E6A6F12008B9400016A6B01
:1010F00012000001010E6B6F8C80120000016B6BFF
:101100008C906EEF08F0D08EF29EF29CF286F290F8
:10111000F190F18EF28AF294F1841200DACFE4FFBA
:10112000E2CFDAFFE9CFE4FFEACFE4FFF6CFE4FF56
:10113000F7CFE4FFF5CFE4FFF3CFE4FFF4CFE4FF14
:10114000FACFE4FF00EE00F0020EE80403E3EECF76
:10115000E4FFFBD700EE02F0020EE80403E3EECF5B
:10116000E4FFFBD7E652840EE66E6D0EE66EB7EC3A
:1011700009F0E552E552F2A410D08150100B07E0BF
:1011800000016A5104E16B0506E0AADF05D0ADDF7E
:1011900000016B0501E188DFF294E55200EE03F0F7
:1011A000020EE80403E3E5CFEDFFFBD700EE01F00C
:1011B000020EE80403E3E5CFEDFFFBD7E5CFFAFF2E
:1011C000E5CFF4FFE5CFF3FFE5CFF5FFE5CFF7FF80
:1011D000E5CFF6FFE5CFEAFFE5CFE9FFE5CFDAFFA0
:1011E0001100D8CFE4FFE0CFE4FFE46EDACFE4FFF4
:1011F000E652F2B0F290E552E5CFDAFFE550E5CFE6
:08120000E0FFE5CFD8FF10006C
:081208002A0EF66E100EF76EBF
:10121000000EF86E00010900F550656F0900F550E9
:10122000666F03E1656701D03DD00900F550606F3E
:101230000900F550616F0900F550626F090009005F
:10124000F550E96E0900F550EA6E09000900090041
:10125000F550636F0900F550646F09000900F6CF7F
:1012600067F0F7CF68F0F8CF69F060C0F6FF61C0B3
:10127000F7FF62C0F8FF0001635302E1645307E027
:101280000900F550EE6E6307F8E26407F9D767C00E
:10129000F6FF68C0F7FF69C0F8FF00016507000EA0
:0612A000665BBFD71200DF
:0A12A600D9CFE6FFDACFE6FFE1CF73
:1012B000D9FFE2CFDAFFAC6AAB6AFD0EDBB0AC88D7
:1012C000DBA202D0AC8CAB8CDBB4AC8EDBA602D044
:1012D000AB8801D0AB8ADBB8AC849E98DBBAAB8616
:1012E000DBAC02D09D8A01D09D9A9E9ADBAE02D0E3
:1012F0009D8801D09D98FB0EDB50AF6EFB0EFC0E5F
:10130000DBCF03F003C002F0036A0250B06EAC8A78
:10131000AB8E949C948EAC50100B04E0AC50800BC0
:1013200001E1948CE552E5CFDAFFE7CFD9FF120057
:10133000D9CFE6FFDACFE6FFE1CFD9FFE2CFDAFF80
:10134000E652F20E00016D17ABAC03D06D91ABB05D
:101350006D81ABB46D85ABB26D87AE50DF6EDF5083
:0E136000E552E552E5CFDAFFE7CFD9FF1200E4
:02136E00D9CFD5
:10137000E6FFDACFE6FFE1CFD9FFE2CFDAFFE652B0
:10138000E652FC0EDBCFDEFFDBCFDDFF010EDB50D4
:10139000D76EDF50D66EE552E552E552E5CFDAFF63
:0613A000E7CFD9FF1200A7
:0A13A600FF0EE350056EEF0E01D0BC
:1013B000F30EE76EE72EDAEF09F00C0E046EE76A23
:1013C000E72EE0EF09F0042EDFEF09F0052ED8EF4D
:0413D00009F012000E
:0C13D400000EF36E00EE00F0080E01D8D1
:1013E0001200EA6002D0EE6AFCD7F350E960120006
:0413F000EE6AFCD7CE
:0C13F40013EE00F023EE00F0F86A019CFC
:1014000004EC09F008EC0AF016EC08F0FBD7120027
:021410001200C8
:00000001FF
